{
  "contractName": "CarFactory",
  "abi": [
    {
      "constant": true,
      "inputs": [],
      "name": "carCount",
      "outputs": [
        {
          "name": "",
          "type": "uint256"
        }
      ],
      "payable": false,
      "stateMutability": "view",
      "type": "function",
      "signature": "0x297a1f56"
    },
    {
      "constant": true,
      "inputs": [
        {
          "name": "",
          "type": "uint256"
        }
      ],
      "name": "cars",
      "outputs": [
        {
          "name": "id",
          "type": "uint256"
        },
        {
          "name": "vin",
          "type": "string"
        },
        {
          "name": "model",
          "type": "string"
        },
        {
          "name": "price",
          "type": "uint256"
        },
        {
          "name": "odometer",
          "type": "uint256"
        },
        {
          "name": "owner",
          "type": "address"
        }
      ],
      "payable": false,
      "stateMutability": "view",
      "type": "function",
      "signature": "0xf7746e36"
    },
    {
      "anonymous": false,
      "inputs": [
        {
          "indexed": false,
          "name": "id",
          "type": "uint256"
        },
        {
          "indexed": false,
          "name": "vin",
          "type": "string"
        },
        {
          "indexed": false,
          "name": "model",
          "type": "string"
        },
        {
          "indexed": false,
          "name": "price",
          "type": "uint256"
        },
        {
          "indexed": false,
          "name": "odometer",
          "type": "uint256"
        },
        {
          "indexed": false,
          "name": "owner",
          "type": "address"
        }
      ],
      "name": "CarCreated",
      "type": "event",
      "signature": "0x02750b9d203ce66bbe3882611eda1c5d0be5639a252cb11ccc44b05ef58b2c6a"
    },
    {
      "anonymous": false,
      "inputs": [
        {
          "indexed": false,
          "name": "id",
          "type": "uint256"
        },
        {
          "indexed": false,
          "name": "vin",
          "type": "string"
        },
        {
          "indexed": false,
          "name": "model",
          "type": "string"
        },
        {
          "indexed": false,
          "name": "price",
          "type": "uint256"
        },
        {
          "indexed": false,
          "name": "odometer",
          "type": "uint256"
        },
        {
          "indexed": false,
          "name": "owner",
          "type": "address"
        }
      ],
      "name": "CarPurchased",
      "type": "event",
      "signature": "0xda397231e25d9b35eb0bb301b6f09140841844dd94f04ce6be76f537fa20e326"
    },
    {
      "constant": false,
      "inputs": [
        {
          "name": "_vin",
          "type": "string"
        },
        {
          "name": "_model",
          "type": "string"
        },
        {
          "name": "_price",
          "type": "uint256"
        }
      ],
      "name": "createCar",
      "outputs": [],
      "payable": false,
      "stateMutability": "nonpayable",
      "type": "function",
      "signature": "0x9fbeba12"
    },
    {
      "constant": false,
      "inputs": [
        {
          "name": "_id",
          "type": "uint256"
        }
      ],
      "name": "purchaseCar",
      "outputs": [],
      "payable": true,
      "stateMutability": "payable",
      "type": "function",
      "signature": "0xe0ba3fe5"
    },
    {
      "constant": false,
      "inputs": [
        {
          "name": "_id",
          "type": "uint256"
        },
        {
          "name": "_odometer",
          "type": "uint256"
        }
      ],
      "name": "changeOdometer",
      "outputs": [],
      "payable": true,
      "stateMutability": "payable",
      "type": "function",
      "signature": "0x2899e412"
    }
  ],
  "bytecode": "0x60806040526000805534801561001457600080fd5b506112a9806100246000396000f3fe60806040526004361061006d576000357c0100000000000000000000000000000000000000000000000000000000900463ffffffff1680632899e41214610072578063297a1f56146100aa5780639fbeba12146100d5578063e0ba3fe51461023e578063f7746e361461026c575b600080fd5b6100a86004803603604081101561008857600080fd5b8101908080359060200190929190803590602001909291905050506103d4565b005b3480156100b657600080fd5b506100bf61085d565b6040518082815260200191505060405180910390f35b3480156100e157600080fd5b5061023c600480360360608110156100f857600080fd5b810190808035906020019064010000000081111561011557600080fd5b82018360208201111561012757600080fd5b8035906020019184600183028401116401000000008311171561014957600080fd5b91908080601f016020809104026020016040519081016040528093929190818152602001838380828437600081840152601f19601f820116905080830192505050505050509192919290803590602001906401000000008111156101ac57600080fd5b8201836020820111156101be57600080fd5b803590602001918460018302840111640100000000831117156101e057600080fd5b91908080601f016020809104026020016040519081016040528093929190818152602001838380828437600081840152601f19601f82011690508083019250505050505050919291929080359060200190929190505050610863565b005b61026a6004803603602081101561025457600080fd5b8101908080359060200190929190505050610b01565b005b34801561027857600080fd5b506102a56004803603602081101561028f57600080fd5b8101908080359060200190929190505050610fff565b6040518087815260200180602001806020018681526020018581526020018473ffffffffffffffffffffffffffffffffffffffff1673ffffffffffffffffffffffffffffffffffffffff168152602001838103835288818151815260200191508051906020019080838360005b8381101561032d578082015181840152602081019050610312565b50505050905090810190601f16801561035a5780820380516001836020036101000a031916815260200191505b50838103825287818151815260200191508051906020019080838360005b83811015610393578082015181840152602081019050610378565b50505050905090810190601f1680156103c05780820380516001836020036101000a031916815260200191505b509850505050505050505060405180910390f35b6103dc61118b565b6001600084815260200190815260200160002060c0604051908101604052908160008201548152602001600182018054600181600116156101000203166002900480601f01602080910402602001604051908101604052809291908181526020018280546001816001161561010002031660029004801561049e5780601f106104735761010080835404028352916020019161049e565b820191906000526020600020905b81548152906001019060200180831161048157829003601f168201915b50505050508152602001600282018054600181600116156101000203166002900480601f0160208091040260200160405190810160405280929190818152602001828054600181600116156101000203166002900480156105405780601f1061051557610100808354040283529160200191610540565b820191906000526020600020905b81548152906001019060200180831161052357829003601f168201915b5050505050815260200160038201548152602001600482015481526020016005820160009054906101000a900473ffffffffffffffffffffffffffffffffffffffff1673ffffffffffffffffffffffffffffffffffffffff1673ffffffffffffffffffffffffffffffffffffffff1681525050905060008160a001519050600082600001511180156105d85750600054826000015111155b15156105e357600080fd5b816080015183101515156105f657600080fd5b3373ffffffffffffffffffffffffffffffffffffffff168173ffffffffffffffffffffffffffffffffffffffff1614151561063057600080fd5b8282608001818152505081600160008681526020019081526020016000206000820151816000015560208201518160010190805190602001906106749291906111d8565b5060408201518160020190805190602001906106919291906111d8565b50606082015181600301556080820151816004015560a08201518160050160006101000a81548173ffffffffffffffffffffffffffffffffffffffff021916908373ffffffffffffffffffffffffffffffffffffffff1602179055509050507fda397231e25d9b35eb0bb301b6f09140841844dd94f04ce6be76f537fa20e3266000548360200151846040015185606001518660800151336040518087815260200180602001806020018681526020018581526020018473ffffffffffffffffffffffffffffffffffffffff1673ffffffffffffffffffffffffffffffffffffffff168152602001838103835288818151815260200191508051906020019080838360005b838110156107b1578082015181840152602081019050610796565b50505050905090810190601f1680156107de5780820380516001836020036101000a031916815260200191505b50838103825287818151815260200191508051906020019080838360005b838110156108175780820151818401526020810190506107fc565b50505050905090810190601f1680156108445780820380516001836020036101000a031916815260200191505b509850505050505050505060405180910390a150505050565b60005481565b60008090506000845111151561087857600080fd5b6000835111151561088857600080fd5b60008211151561089757600080fd5b600080815480929190600101919050555060c06040519081016040528060005481526020018581526020018481526020018381526020018281526020013373ffffffffffffffffffffffffffffffffffffffff1681525060016000805481526020019081526020016000206000820151816000015560208201518160010190805190602001906109289291906111d8565b5060408201518160020190805190602001906109459291906111d8565b50606082015181600301556080820151816004015560a08201518160050160006101000a81548173ffffffffffffffffffffffffffffffffffffffff021916908373ffffffffffffffffffffffffffffffffffffffff1602179055509050507f02750b9d203ce66bbe3882611eda1c5d0be5639a252cb11ccc44b05ef58b2c6a60005485858585336040518087815260200180602001806020018681526020018581526020018473ffffffffffffffffffffffffffffffffffffffff1673ffffffffffffffffffffffffffffffffffffffff168152602001838103835288818151815260200191508051906020019080838360005b83811015610a55578082015181840152602081019050610a3a565b50505050905090810190601f168015610a825780820380516001836020036101000a031916815260200191505b50838103825287818151815260200191508051906020019080838360005b83811015610abb578082015181840152602081019050610aa0565b50505050905090810190601f168015610ae85780820380516001836020036101000a031916815260200191505b509850505050505050505060405180910390a150505050565b610b0961118b565b6001600083815260200190815260200160002060c0604051908101604052908160008201548152602001600182018054600181600116156101000203166002900480601f016020809104026020016040519081016040528092919081815260200182805460018160011615610100020316600290048015610bcb5780601f10610ba057610100808354040283529160200191610bcb565b820191906000526020600020905b815481529060010190602001808311610bae57829003601f168201915b50505050508152602001600282018054600181600116156101000203166002900480601f016020809104026020016040519081016040528092919081815260200182805460018160011615610100020316600290048015610c6d5780601f10610c4257610100808354040283529160200191610c6d565b820191906000526020600020905b815481529060010190602001808311610c5057829003601f168201915b5050505050815260200160038201548152602001600482015481526020016005820160009054906101000a900473ffffffffffffffffffffffffffffffffffffffff1673ffffffffffffffffffffffffffffffffffffffff1673ffffffffffffffffffffffffffffffffffffffff1681525050905060008160a00151905060008260000151118015610d055750600054826000015111155b1515610d1057600080fd5b81606001513410151515610d2357600080fd5b3373ffffffffffffffffffffffffffffffffffffffff168173ffffffffffffffffffffffffffffffffffffffff1614151515610d5e57600080fd5b338260a0019073ffffffffffffffffffffffffffffffffffffffff16908173ffffffffffffffffffffffffffffffffffffffff16815250508160016000858152602001908152602001600020600082015181600001556020820151816001019080519060200190610dd09291906111d8565b506040820151816002019080519060200190610ded9291906111d8565b50606082015181600301556080820151816004015560a08201518160050160006101000a81548173ffffffffffffffffffffffffffffffffffffffff021916908373ffffffffffffffffffffffffffffffffffffffff1602179055509050508073ffffffffffffffffffffffffffffffffffffffff166108fc349081150290604051600060405180830381858888f19350505050158015610e92573d6000803e3d6000fd5b507fda397231e25d9b35eb0bb301b6f09140841844dd94f04ce6be76f537fa20e3266000548360200151846040015185606001518660800151336040518087815260200180602001806020018681526020018581526020018473ffffffffffffffffffffffffffffffffffffffff1673ffffffffffffffffffffffffffffffffffffffff168152602001838103835288818151815260200191508051906020019080838360005b83811015610f54578082015181840152602081019050610f39565b50505050905090810190601f168015610f815780820380516001836020036101000a031916815260200191505b50838103825287818151815260200191508051906020019080838360005b83811015610fba578082015181840152602081019050610f9f565b50505050905090810190601f168015610fe75780820380516001836020036101000a031916815260200191505b509850505050505050505060405180910390a1505050565b6001602052806000526040600020600091509050806000015490806001018054600181600116156101000203166002900480601f0160208091040260200160405190810160405280929190818152602001828054600181600116156101000203166002900480156110b15780601f10611086576101008083540402835291602001916110b1565b820191906000526020600020905b81548152906001019060200180831161109457829003601f168201915b505050505090806002018054600181600116156101000203166002900480601f01602080910402602001604051908101604052809291908181526020018280546001816001161561010002031660029004801561114f5780601f106111245761010080835404028352916020019161114f565b820191906000526020600020905b81548152906001019060200180831161113257829003601f168201915b5050505050908060030154908060040154908060050160009054906101000a900473ffffffffffffffffffffffffffffffffffffffff16905086565b60c0604051908101604052806000815260200160608152602001606081526020016000815260200160008152602001600073ffffffffffffffffffffffffffffffffffffffff1681525090565b828054600181600116156101000203166002900490600052602060002090601f016020900481019282601f1061121957805160ff1916838001178555611247565b82800160010185558215611247579182015b8281111561124657825182559160200191906001019061122b565b5b5090506112549190611258565b5090565b61127a91905b8082111561127657600081600090555060010161125e565b5090565b9056fea165627a7a7230582065467ebba67ca78df866c656de5ebc9d28ed2b049b9324d71e8ab461ef7c6b150029",
  "source": "pragma solidity ^0.5.0;\n\ncontract CarFactory {\n    uint public carCount = 0;\n    mapping(uint => Car) public cars;\n\n    struct Car {\n        uint id;\n        string vin;\n        string model;\n        uint price;\n        uint odometer;\n        address payable owner;\n    }\n\n    event CarCreated(\n        uint id,\n        string vin,\n        string model,\n        uint price,\n        uint odometer,\n        address payable owner\n    );\n\n    event CarPurchased(\n        uint id,\n        string vin,\n        string model,\n        uint price,\n        uint odometer,\n        address payable owner\n    );\n\n    function createCar(string memory _vin, string memory _model, uint _price) public {\n        uint odometer = 0;\n        // Require a valid vin\n        require(bytes(_vin).length > 0);\n        // Require a valid model\n        require(bytes(_model).length > 0);\n        // Require a valid price\n        require(_price > 0);\n        // Increment car count\n        carCount++;\n        // Create the car\n        cars[carCount] = Car(carCount, _vin, _model, _price, odometer, msg.sender);\n        // Trigger an event\n        emit CarCreated(carCount,  _vin, _model, _price,  odometer, msg.sender);\n    }\n    \n\n    function purchaseCar(uint _id) public payable {\n        // Fetch the car\n        Car memory _car = cars[_id];\n        // Fetch the owner\n        address payable _seller = _car.owner;\n        // Make sure the car has a valid id\n        require(_car.id > 0 && _car.id <= carCount);\n        // Require that there is enough Ether in the transcation\n        require(msg.value >= _car.price);\n        // Require that the buyer is not the seller\n        require(_seller != msg.sender);\n        // Transfer ownership to the buyer\n        _car.owner = msg.sender;\n        // Update the product\n        cars[_id] = _car;\n        // Pay the seller by sending them Ether\n        address(_seller).transfer(msg.value); \n        // Trigger an event\n        emit CarPurchased(carCount, _car.vin, _car.model, _car.price, _car.odometer, msg.sender);\n    }\n    \n    \n    function changeOdometer(uint _id, uint _odometer) public payable {\n        // Fetch the car\n        Car memory _car = cars[_id];\n        // Fetch the owner\n        address payable _owner = _car.owner;\n        // Make sure the car has a valid id\n        require(_car.id > 0 && _car.id <= carCount);\n        // Require that _odometer > than old odometer entry\n        require(_odometer >= _car.odometer);\n        // Require that the owner is owner\n        require(_owner == msg.sender);\n        // Change odometer\n        _car.odometer = _odometer;\n        // Update the product\n        cars[_id] = _car;\n        // Trigger an event\n        emit CarPurchased(carCount, _car.vin, _car.model, _car.price, _car.odometer, msg.sender);\n    }\n    \n\n}\n",
  "sourcePath": "D:/praca inż wat/INŻ/Materiały/code/eth-cars/src/contracts/CarFactory.sol",
  "compiler": {
    "name": "solc",
    "version": "0.5.0+commit.1d4f565a.Emscripten.clang"
  },
  "schemaVersion": "3.0.1",
  "updatedAt": "2020-01-06T02:33:48.113Z",
  "devdoc": {
    "methods": {}
  },
  "userdoc": {
    "methods": {}
  }
}